:020000040C00EE
:100000000008001001020008B1020008B102000857
:10001000B1020008B1020008B102000800000000AF
:10002000000000000000000000000000B102000815
:10003000B102000800000000B102000885180008A5
:10004000B1020008B1020008B1020008B1020008C4
:10005000B1020008B1020008B1020008B1020008B4
:10006000B1020008000000000000000000000000D5
:10007000B102000800000000B1020008B10200084F
:10008000B1020008B1020008B1020008B102000884
:10009000B1020008B1020008B1020008B102000874
:1000A000B1020008B1020008B1020008B102000864
:1000B000B1020008B1020008B1020008B102000854
:1000C000B1020008B1020008B1020008B102000844
:1000D000B1020008B1020008B1020008B102000834
:1000E000B1020008B1020008B1020008B102000824
:1000F000B1020008B1020008B1020008B102000814
:10010000B1020008B1020008B1020008B102000803
:10011000B1020008B1020008B1020008B1020008F3
:10012000B1020008B1020008B1020008B1020008E3
:1001300031280008B1020008B1020008B10200082D
:10014000B1020008B1020008B1020008B1020008C3
:10015000B1020008B1020008B1020008B1020008B3
:10016000000000000000000000000000000000008F
:10017000B1020008B1020008B1020008B102000893
:10018000B1020008B1020008B1020008B102000883
:10019000B1020008B1020008B1020008B102000873
:1001A000B1020008B1020008B1020008B102000863
:1001B000B1020008B1020008B1020008B102000853
:1001C000B1020008B1020008B1020008B102000843
:1001D000B1020008B1020008B102000800000000EE
:1001E000B1020008B1020008B1020008B102000823
:1001F000B102000800000000B10200080000000089
:10020000DFF88CD023488047234C244DAC4209DAD8
:1002100021686268A368043BA2BFC858D050FAE7BF
:100220000C34F3E71E4B1F4CA34208DA19685A68D6
:100230000020043AA4BF8850FBE70833F4E71A48CB
:1002400080471A48804700000044000C000000204E
:10025000BC000000BC44000C0000003000000000A6
:100260000044000C00080010000000000044000CD6
:100270000008001000000000BC0000203401000055
:100280000000003000000000000800100000000026
:1002900000080010B50200084802000878020008B3
:1002A0007802000890020008513D00083924000837
:1002B000FEE7000098B500AF054A4FF00053144622
:1002C0000FCB84E80F0001F0C9FF02F021F898BDC0
:1002D000C4FF002080B584B000AF2F4BDB6803F46F
:1002E0008033002B3ED02D4BDB6803F00103002B45
:1002F00002D02B4BFB6002E002F000F8F860274BC5
:100300001B6803F00403002B20D0244B9B6803F0F0
:1003100070631B0E0133BB60204B9B6803F4FE43EC
:100320001B0A01337B601D4B9B6803F4FE031B0C0F
:1003300001333B60BB683A6802FB03F3FA68B2FB27
:10034000F3F37A6802FB03F3FB600DE0134B9B6849
:1003500003F07F0301333B60FA683B68B2FBF3F3C1
:10036000FB6001E00E4BFB600B4BDB68DBB2013343
:10037000FA68B2FBF3F3FB60074B1B6903F0010360
:100380000133FA68B2FBF3F3FB60064AFB681360C3
:100390001037BD4680BD00BF0046005010470050DA
:1003A00000366E01C0FF002080B582B000AF7860DB
:1003B0007B68054A934203D14FF4803000F026F960
:1003C0000837BD4680BD00BF0040044080B485B002
:1003D00000AFF8600B467A60FB72FB7A9B08DBB2D9
:1003E0001846FB7A9B08DBB21A46FB68043253F8C6
:1003F0002220FB7A03F00303DB001946F8238B402D
:10040000DB4302EA0301FB68021D43F82210FB688C
:100410005A6FFB7A5B00194603238B40DB431A407B
:10042000FB685A67FB68374A934203D0FB68364A39
:1004300093420AD1FB681A6EFB7A012101FA03F399
:10044000DB431A40FB681A663CE07B685A68FB7A1B
:100450009A40FB685A60FB7ADB08DBB21846FB7AED
:10046000DB08DBB21A46FB68103253F82220FB7A15
:1004700003F007039B00194607238B40DB4302EA86
:100480000301FB6800F1100243F82210FB7ADB083D
:10049000DBB21846FB7ADB08DBB21A46FB68103287
:1004A00053F822207B681B7A1946FB7A03F0070376
:1004B0009B0001FA03F342EA0301FB6800F110021A
:1004C00043F82210FB7A9B08DBB21846FB7A9B08A4
:1004D000DBB21A46FB68043253F822207B681B7893
:1004E0001946FB7A03F00303DB0001FA03F342EA47
:1004F0000301FB68021D43F822101437BD465DF866
:10050000047B7047008E0248008F024880B584B09B
:1005100000AF7860FFF7DEFE0B4B1B680B4AA2FBB7
:1005200003239A0C7B6802FB03F37B600023FB60D0
:1005300003E000BFFB680133FB60FA687B689A4206
:10054000F7D31037BD4680BDC0FF002083DE1B43BC
:10055000B0B584B002AF7860002000F075F800F00C
:1005600007FA7B68DB79002B01D000F02BFA7B685F
:100570005B7A184600F0E2F87B681B7A184600F0B8
:10058000D1F97B681B7C184600F0F6F87B685B7C31
:10059000184600F019F97B689B7C184600F000F9BA
:1005A0007B68DB7C184600F023F97B689B79002B85
:1005B00001D000F041FA7B68DB78002B02D100F01B
:1005C0007BFA14E000F068FA7B6899887B68DA7837
:1005D0007B685B781D467B681B781C467B689B7834
:1005E0000093084611462A46234600F075FA7B68B8
:1005F000DB68B3F5803F03D14FF4803000F024F87E
:10060000FFF768FE0837BD46B0BD00BF80B485B0B7
:1006100000AF78607B681B0FFB607B6823F0704342
:10062000BB60084AFB6852F823300649FA6851F863
:1006300022201168BA680A431A601437BD465DF873
:10064000047B70479C3D000880B483B000AF7860A5
:100650000649064BDB6823F480327B681343CB608A
:100660000C37BD465DF8047B704700BF0046005064
:1006700080B483B000AF78600649064B9B6923F4D1
:1006800080327B6813438B610C37BD465DF8047B79
:10069000704700BF0046005080B483B000AF786060
:1006A0000649064B5B6A23F440327B6813434B6276
:1006B0000C37BD465DF8047B704700BF0046005014
:1006C00080B483B000AF0346FB80FB88002B08D1C9
:1006D0000A4A0A4BDB6823F4807323F00103D360DA
:1006E00007E0064A054BDB6843F4807343F00103DF
:1006F000D3600C37BD465DF8047B7047104700504F
:1007000080B483B000AF0346FB7100BF094BD3F840
:10071000C43003F00803002BF8D10749064BDB680F
:1007200023F04002FB791343CB600C37BD465DF8E4
:10073000047B7047004000500043005080B483B0F9
:1007400000AF0346FB7100BF094BD3F8C43003F080
:100750000803002BF8D10749064BDB6823F0800221
:10076000FB791343CB600C37BD465DF8047B7047C3
:10077000004000500043005080B483B000AF786068
:100780000649064BDB6823F0FF027B68013B1343FD
:10079000CB600C37BD465DF8047B704700460050C7
:1007A00080B483B000AF78600649064B1B6A23F023
:1007B00001027B68013B13430B620C37BD465DF8B9
:1007C000047B70470046005080B483B000AF78606F
:1007D0000649064B1B6923F001027B68013B13436A
:1007E0000B610C37BD465DF8047B70470046005036
:1007F00080B483B000AF78600649064B5B6923F094
:1008000001027B68013B13434B610C37BD465DF829
:10081000047B70470046005080B483B000AF78601E
:100820000649064B9B6923F007027B68013B134393
:100830008B610C37BD465DF8047B70470046005065
:1008400080B483B000AF78600649064BDB6923F0C3
:100850003F027B68013B1343CB610C37BD465DF81B
:10086000047B70470046005080B483B000AF7860CE
:100870000649064B5B6A23F0FF027B68013B13438A
:100880004B620C37BD465DF8047B70470046005054
:1008900080B483B000AF0346FB71044AFB79536018
:1008A0000C37BD465DF8047B704700BF0046005022
:1008B00080B483B000AF78603960194A184B5B6927
:1008C00043F001035361164A154B5B6943F0100373
:1008D000536113493B68013B1A027B68013B1B06CD
:1008E00013434B610E4A0E4B5B6943F04003536167
:1008F0000B4A0B4B5B6923F010035361084A084B0A
:100900005B6943F48023536100BF054B1B6903F00F
:100910000403002BF9D00C37BD465DF8047B70470B
:100920001047005080B582B000AF0346FB710F4AFC
:100930000E4B5B6843F480135360FB79012B0ED19F
:100940000A4A0A4B5B6823F4801353606420FFF764
:10095000DDFD064A054B5B6843F4002353606420C9
:10096000FFF7D4FD0837BD4680BD00BF10470050DB
:1009700080B500AF114B1B6803F00103002B0CD1B5
:100980000E4A0E4B5B6843F00103536000BF0B4BF4
:100990001B6803F00103002BF9D0094B1B6803F41B
:1009A0000073002B08D0064A054B9B6843F4007384
:1009B00093609620FFF7AAFD80BD00BF0042005063
:1009C0000044005080B500AF00BF194BD3F8C430CD
:1009D00003F08003002BF8D1164A164BDB6923F095
:1009E0003003D36100BF124BD3F8C43003F00803C7
:1009F000002BF8D10F4A0F4BDB6843F00803D3609C
:100A000000BF0B4BD3F8C43003F00203002BF8D126
:100A1000084A084B5B6843F0080353603220FFF735
:100A200075FD044B1B6803F00803002BE8D180BD63
:100A30000040005000430050B0B500AF134A134BC4
:100A40005B6823F480335360114D114B5B6823F4D2
:100A5000702424F0300401F051FC02460D4BA3FB3E
:100A600002231B0D013B1B0423436B60074A074B0A
:100A70005B6823F40033536000BF044B1B6803F42E
:100A80006073B3F5607FF8D1B0BD00BF1047005070
:100A9000004700506BCA5F6B80B400AF054A054B3E
:100AA0005B6823F4803323F002035360BD465DF896
:100AB000047B70471047005080B400AF054A054BD7
:100AC0005B6843F4803343F002035360BD465DF836
:100AD000047B70471047005080B586B000AFBA6005
:100AE0007B600346FB810B467B73FB891846FFF74F
:100AF000E7FD7B7B012B40F09980FB89002B08D11F
:100B000001F0FCFB07EE900AF8EE677AC7ED057A74
:100B100001E0534B7B617B6807EE903AB8EE677A51
:100B2000D7ED057A27EE277ABB6807EE903AF8EE04
:100B3000677AC7EE277AC7ED057AD7ED057AFCEE1E
:100B4000E77A17EE902A474BA3FB02235B0D3B612C
:100B5000454A454B5B6843F001035360424A424BB0
:100B60005B6843F0100353603F493F4B9A683F4B2B
:100B700013407A68013A12021A433B69013B1B0495
:100B80001A43BB68013B1B0613438B60364A364B46
:100B90005B6843F040035360334A334B5B6823F098
:100BA00010035360304A304B5B6843F4802353603A
:100BB00000BF2D4B1B6803F00403002BF9D02A4A19
:100BC000294B5B6823F00103536000BF264B1B6871
:100BD00003F00103002BF9D1D7ED057AFCEEE77A9B
:100BE00017EE903A1B0A224AA2FB03239B0A3B61A1
:100BF0003A6A3B699A4202D2386900F03DF8D7ED73
:100C0000057AFCEEE77A17EE903ADB09194AA2FB67
:100C10000323DB0A3B613A6A3B699A4202D2386994
:100C200000F02AF8386A00F027F815E00E490E4B5C
:100C30009B6823F07F023B6A013B13438B600A4AA7
:100C4000094B5B6843F00103536000BF064B1B6810
:100C500003F00103002BF9D01837BD4680BD00BF5B
:100C6000001BB74B819F5E1610470050FF8080F03D
:100C7000C7541E012FE3BE0080B582B000AF78607C
:100C80000749074B9B6823F4FE027B68013B1B046A
:100C900013438B603220FFF739FC0837BD4680BD17
:100CA0001047005080B483B000AF78607B68DB6889
:100CB00043F480727B68DA600C37BD465DF8047BD4
:100CC000704700BF80B483B000AF78607B681B6959
:100CD00043F001027B681A610C37BD465DF8047B66
:100CE000704700BF80B582B000AF78607B68094A6A
:100CF000934203D0084A934204D008E08020FFF7D3
:100D000085FC04E04FF48070FFF780FC00BF0837DB
:100D1000BD4680BD000002400040024080B582B068
:100D200000AF78601020FFF7B3FD7868FFF7DAFFB7
:100D30000837BD4680BD00BF80B584B000AF786085
:100D40000B46FB707868FFF7E9FF7868FFF7AAFFAA
:100D50007B681B68FB60FB6823F44043FB60FB7807
:100D60009B03FA681343FB607B68FA681A601037CC
:100D7000BD4680BD80B582B000AF786039607868CC
:100D8000FFF7A0FF3B681A687B685A613B685B7B92
:100D9000C3F30013DBB21A057B685A603B681B7B08
:100DA000C3F30303DBB21A467B685A623B681B7BC2
:100DB000C3F30313DBB21A467B68DA623B685B7BE2
:100DC000C3F30303DBB21A467B681A623B685A68B6
:100DD0007B689A613B689B6883F014027B689A6425
:100DE0000837BD4680BD00BF80B485B000AF7860D5
:100DF00039607B681B68FB603B681B0CDB43FA684F
:100E00001340FB603B689BB2FA681343FB607B684E
:100E1000FA681A601437BD465DF8047B704700BF5E
:100E200080B485B000AF78600B46FB701346BB7092
:100E30007B685B68BB60BB6823F00303BB60FB7827
:100E4000BA681343BB607B68BA685A607B685B69A9
:100E5000FB60BB78012B04D1FB6843F48063FB602B
:100E600003E0FB6823F48063FB607B68FA685A61E7
:100E70001437BD465DF8047B704700BF80B485B071
:100E800000AF78600B46FB701346BB707B685B68F5
:100E9000FB60FB6823F00C03FB60FB789B00FA68A7
:100EA0001343FB607B68FA685A607B685B69BB60D0
:100EB000BB6823F44073BB60BB781B02BA68134362
:100EC000BB607B68BA685A611437BD465DF8047B25
:100ED000704700BF80B485B000AF78600B46FB70F0
:100EE0007B685B68FB60FB6823F44053FB60FB7826
:100EF0001B03FA681343FB607B68FA685A60143777
:100F0000BD465DF8047B704780B485B000AF786063
:100F10000B46FB707B685B69FB60FB6823F080031A
:100F2000FB60FB78DB01FA681343FB607B68FA68BF
:100F30005A611437BD465DF8047B704780B485B0B4
:100F400000AF7860084611461A460346FB700B4610
:100F5000BB7013467B707B685B68BB60BB6823F427
:100F60004023BB60FB789B04BA681343BB607B687B
:100F7000BA685A607B685B69FB60BB78012B04D15F
:100F8000FB6843F08073FB6003E0FB6823F0807331
:100F9000FB603B7E002B04D0FB6843F40003FB6046
:100FA00003E0FB6823F40003FB60FB6823F0C053FD
:100FB000FB607B78DB06FA681343FB607B68FA68AA
:100FC0005A611437BD465DF8047B704780B485B024
:100FD00000AF78600B46FB707B685B68FB60FB686A
:100FE00023F44043FB60FB789B03FA681343FB60E8
:100FF0007B68FA685A601437BD465DF8047B704719
:1010000080B485B000AF78600B46FB707B685B688E
:10101000FB60FB6823F44073FB60FB781B02FA68FB
:101020001343FB607B68FA685A601437BD465DF86D
:10103000047B704780B485B000AF78600B46FB70CE
:101040007B685B68FB60FB6823F44063FB60FB78B4
:101050009B02FA681343FB607B68FA685A60143796
:10106000BD465DF8047B704780B485B000AF786002
:101070007B685B68FB60FB6823F48033FB60FB6884
:1010800043F48033FB607B68FA685A601437BD46CE
:101090005DF8047B704700BF80B485B000AF786016
:1010A0000B46FB701346BB707B685B68BB60BB681C
:1010B00023F40033BB60BB6843F40033BB607B6840
:1010C000BA685A607B685B69FB60BB78002B04D010
:1010D000FB6843F40013FB6003E0FB6823F4001398
:1010E000FB60FB78012B04D1FB6843F48003FB60B9
:1010F00003E0FB6823F48003FB607B68FA685A61B5
:101100001437BD465DF8047B704700BF80B487B0DC
:1011100000AFF860B9607A60FB681B687B617B692F
:1011200023F440237B61BB685B789B047A6913439B
:101130007B617B6923F440137B617B685B781B05D3
:101140007A6913437B617B6923F400037B61BB688D
:101150009B78DB057A6913437B617B6923F080739D
:101160007B617B689B781B067A6913437B617B6993
:1011700023F0C0537B61BB68DB78DB067A691343DD
:101180007B617B6923F0C0437B617B68DB785B0715
:101190007A6913437B617B6923F0F0037B61BB6851
:1011A0001B781B017A6913437B617B6923F47063AD
:1011B0007B617B681B781B027A6913437B61FB6848
:1011C0007A691A601C37BD465DF8047B704700BF22
:1011D00080B489B000AFF8600B467A60FB72FB7A8E
:1011E000013BFB77FB681B68BB61FB7F5B00DBB2ED
:1011F0001033FB75FB7D032202FA03F3DB43BA696C
:101200001340BB617B685B781A46FB7D02FA03F3EF
:10121000BA691343BB61FB7F1633FB75FB7D01226B
:1012200002FA03F3DB43BA691340BB617B689B7826
:101230001A46FB7D02FA03F3BA691343BB61FB7FD5
:101240005B00DBB21933FB75FB7D032202FA03F36B
:10125000DB43BA691340BB617B68DB781A46FB7DD0
:1012600002FA03F3BA691343BB61FB7F9B00FB7572
:10127000FB7D0F2202FA03F3DB43BA691340BB6123
:101280007B681B781A46FB7D02FA03F3BA691343A5
:10129000BB61FB68BA691A602437BD465DF8047B00
:1012A000704700BF80B483B000AF78600B467B808E
:1012B0007A887B685A630C37BD465DF8047B7047BB
:1012C00080B483B000AF78600B46FB7013463B8060
:1012D000FB78002B03D13A887B68DA6302E03A8816
:1012E0007B685A640C37BD465DF8047B704700BFCD
:1012F00080B487B000AF78600B46FB701346BB70BC
:101300007B68D3F8A830FB60FB78092B31D801A2A9
:1013100052F823F03D1300083D130008471300085E
:1013200047130008511300085113000873130008F5
:10133000731300085B1300086713000803237B6125
:1013400000233B611BE00C237B6102233B6116E021
:1013500030237B6104233B6111E04FF440737B61D8
:1013600008233B610BE04FF440637B610A233B6140
:1013700005E04FF440537B610C233B6100BF7B6968
:10138000DB43FA681340FB60BA783B6902FA03F367
:10139000FA681343FB607B68FA68C3F8A8201C371F
:1013A000BD465DF8047B704780B483B000AF7860C1
:1013B00039603B685A687B681A653B689A687B6845
:1013C0005A653B681A687B68DA640C37BD465DF87D
:1013D000047B704780B584B000AFF8600B467A603C
:1013E000FB72F868FEF7E0FFFB681A68FB7A9B0067
:1013F00019460F238B40DB431A407B681B68F97A40
:1014000089008B401A43FB681A60FA7A7B68596836
:10141000FB68043243F822101037BD4680BD00BF80
:1014200080B400AFBD465DF8047B704780B400AF68
:10143000044BDB6803F4E0631B0A1846BD465DF805
:10144000047B704700ED00E080B483B000AF03463A
:101450003960FB7197F90730002B0BDA0D49FB79E6
:1014600003F00F03043B3A68D2B29200D2B20B44AD
:101470001A7609E0084997F907303A68D2B2920023
:10148000D2B20B4483F800230C37BD465DF8047BD1
:10149000704700BF00ED00E000E100E080B489B0DB
:1014A00000AFF860B9607A60FB6803F00703FB6186
:1014B000FB69C3F10703062B28BF0623BB61FB6949
:1014C0000633062B02D9FB69013B00E000237B6158
:1014D000BB69012202FA03F35A1EBB681A407B69FA
:1014E0009A407B69012101FA03F3591E7B680B4086
:1014F000134318462437BD465DF8047B704700BF90
:1015000080B582B000AF78607B68013BB3F1807F2B
:1015100001D301230FE00A4A7B68013B53604FF07F
:10152000FF303F21FFF790FF054B00229A60044BEC
:1015300007221A60002318460837BD4680BD00BF49
:1015400010E000E090B486B000AF78600023FB7339
:101550006B497A681346DB0013449B000B44183335
:101560001B68BB60674B1B68002B09D17A68134668
:10157000DB0013449B00624A1344624A1360BBE0E1
:10158000604B1B687B61BB683B61ABE07B699B691F
:101590001A463B699B1A3B613B69002B7ADC7B69ED
:1015A0005B68002B26D07B6959687A681346DB009C
:1015B00013449B00524A13440B607B69596850489E
:1015C0007A681346DB0013449B00034459604C497E
:1015D0007A681346DB0013449B000B447A691A6057
:1015E0007A681346DB0013449B00454A1A447B6922
:1015F0005A601CE0434B196841487A681346DB0087
:1016000013449B00034419603E4B19687A681346E3
:10161000DB0013449B003A4A13444B607A6813463C
:10162000DB0013449B00364A1344364A13603449A6
:101630007A681346DB0013449B000B441B689A69CD
:101640003B69D1182E487A681346DB0013449B008F
:101650000344183319602A497A681346DB0013449F
:101660009B000B44196826487A681346DB00134434
:101670009B0003441B689869214C7A681346DB0081
:1016800013449B00234418331B68C31A8B61012346
:10169000FB7324E03B69002B21DD7B691B68002B79
:1016A0001DD117497A681346DB0013449B000B4495
:1016B0007A695A607A681346DB0013449B00104A2B
:1016C0001A447B691A6039690D487A681346DB0051
:1016D00013449B000344183319600123FB737B6997
:1016E0001B687B617B69002B06D0FB7B83F00103C9
:1016F000DBB2002B7FF44AAF1837BD4690BC704771
:10170000D0000020BC00002080B485B000AF78601D
:101710007A681346DB0013449B00294A1344FB609C
:10172000FB685B68002B07D1FB681B68002B03D1AB
:10173000244B00221A603DE0FB685B68002B14D14B
:10174000FB681B681F4A13601E4B1B6800225A600F
:101750001C4B1B681B4A12689169FA6892690A441B
:101760009A61FB6800221A6024E0FB681B68002B6A
:1017700007D1FB685B6800221A60FB6800225A6090
:1017800018E0FB685B68FA6812681A60FB681B68FF
:10179000FA6852685A60FB681B68FA6812689169B7
:1017A000FA6892690A449A61FB6800221A60FB6831
:1017B00000225A601437BD465DF8047B704700BFB5
:1017C000D0000020BC00002080B582B000AF2B4BC1
:1017D0001B687B6048E07B6893F82030002B13D0B7
:1017E0007B685B691846FFF78FFF7B6800225A739E
:1017F0007B685B691A4601239340DA43204B1B68E0
:1018000013401F4A13602CE07B681B7B002B0ED11A
:101810007B685B691846FFF777FF7B6802225A7383
:101820007B689B687A6812691046984719E07B6864
:101830001B7B012B14D17B685B691846FFF764FFA3
:101840007B68DA697B689A617B685B691846FFF799
:1018500079FE7B689B687A6812691046984700E0B9
:1018600009E0064B1B687B607B68002B03D07B681C
:101870009B69002BAFD00837BD4680BDBC0000205F
:10188000C000002080B582B000AF0E4B1B687B60AB
:101890000D4B1B6801330C4A13607B68002B0ED084
:1018A0007B689B69012B05D97B689B695A1E7B6805
:1018B0009A6104E07B6800229A61FFF785FF083790
:1018C000BD4680BDBC000020C400002080B584B0AF
:1018D00000AF78600023FB737B681B7883F0010303
:1018E000DBB2002B20D0134B00221A601248FFF706
:1018F00007FE0346FB73FB7B012B15D0FFF796FD1C
:10190000034618463F210022FFF7C8FD03464FF06B
:10191000FF301946FFF798FD084B00221A607B68DC
:1019200001221A700023FB73FB7B18461037BD465B
:1019300080BD00BFBC000020C0D40100C00000205A
:1019400080B483B000AF78600B46FB707B68DA68C8
:10195000FB78012101FA03F31A437B68DA600C3744
:10196000BD465DF8047B704780B483B000AF7860FB
:1019700039607B685A693B685B041A437B685A612B
:101980000C37BD465DF8047B704700BF80B483B060
:1019900000AF78607B680122DA600C37BD465DF8E5
:1019A000047B704780B483B000AF78607B681B6BAA
:1019B0009BB218460C37BD465DF8047B704700BFEC
:1019C00080B483B000AF786039607B681A693B6887
:1019D0001A437B681A610C37BD465DF8047B70477B
:1019E00080B483B000AF78600B46FB707B68D3F89F
:1019F000A420FB78012101FA03F31A437B68C3F8A2
:101A0000A4200C37BD465DF8047B704780B586B0D6
:101A100000AF78600123FB750123BB757B681B7FDA
:101A2000002B40F09A807B681B68D3F888301846FA
:101A300000F0B2FB0346BB75BB7D002B40F08980F4
:101A40007B689A687B681B685B6C10461946FFF7D9
:101A500091F97B689A687B681B685B881046194619
:101A6000FFF720FC7B689A687B681B689B881046A0
:101A700000211A46FFF724FC7B689A687B681B6884
:101A8000DB88104601211A46FFF71AFC7B681B68A9
:101A90005B6CDB7803F00203DBB2002B08D17B68C0
:101AA0001B685B6CDB7803F00403DBB2002B08D00F
:101AB0007B685A687B681B68DB6B10461946FFF72A
:101AC00093F97B685A687B681B6910461946FFF7D3
:101AD00077FF7B685A687B685B6910461946FFF799
:101AE0006FFF7B689A687B681B681B6C1046194601
:101AF000FFF75AFC786800F057F9786800F034F87E
:101B0000786800F0F5F87B681B68D3F888301B68AC
:101B10003B617B681B685B6C1B7BC3F30303DBB21D
:101B2000FB60FB683A6922FA03F33B617B683A6920
:101B30001A627B6801221A770023FB757B681B6899
:101B40001B78002B0BD0786800F01EFA0346FB755B
:101B500005E07B6800221A7701E00223FB75FB7D1C
:101B600018461837BD4680BD80B582B000AF78609A
:101B70007B689A687B681B685B7C104600211A466C
:101B8000FFF7B6FB7B689A687B681B689B7C1046F6
:101B900002211A46FFF7ACFB7B689A687B681B68DA
:101BA000DB7C104603211A46FFF7A2FB7B689A688C
:101BB0007B681B681B7D104604211A46FFF798FBC3
:101BC0007B689A687B681B685B7D104605211A4616
:101BD000FFF78EFB7B689A687B681B689B7D1046CD
:101BE00001211A46FFF784FB7B689A687B681B68B3
:101BF000DB7D104608211A46FFF77AFB7B689A685E
:101C00007B681B681B7E104609211A46FFF770FB94
:101C10007B689A687B681B685B7E10460A211A46BF
:101C2000FFF766FB7B681B681B7A002B05D07B687F
:101C30009B6818460021FFF7D3FE7B681B685B7A20
:101C4000002B05D07B689B6818460221FFF7C8FE71
:101C50007B681B689B7A002B05D07B689B681846C5
:101C60000321FFF7BDFE7B681B68DB7A002B05D0E4
:101C70007B689B6818460421FFF7B2FE7B681B68EF
:101C80001B7B002B05D07B689B6818460521FFF75E
:101C9000A7FE7B681B685B7B002B05D07B689B687D
:101CA00018460121FFF79CFE7B681B689B7B002B7D
:101CB00005D07B689B6818460821FFF791FE7B687A
:101CC0001B68DB7B002B05D07B689B6818460921CD
:101CD000FFF786FE7B681B681B7C002B05D07B68AA
:101CE0009B6818460A21FFF77BFE0837BD4680BD7A
:101CF00080B582B000AF78607B681B6893F848308D
:101D0000002B0ED07B681B68D96C7B681B6893F82E
:101D100050207B681B685B6D084611461A46FEF72B
:101D200055FB7B681B6893F85830002B0ED07B68FE
:101D30001B68D96D7B681B6893F860207B681B6803
:101D40005B6E084611461A46FEF740FB7B681B682F
:101D500093F86830002B0ED07B681B68D96E7B68C7
:101D60001B6893F870207B681B685B6F0846114600
:101D70001A46FEF72BFB7B681B6893F87830002B24
:101D80000FD07B681B68D96F7B681B6893F8802035
:101D90007B681B68D3F88430084611461A46FEF764
:101DA00015FB0837BD4680BD80B584B002AF7860B2
:101DB0007B689A687B681B68DB69104601211A46BC
:101DC000FFF706FA7B689A687B681B681B6A1046F7
:101DD00002211A46FFF7FCF97B689A687B681B684A
:101DE0005B6A104603211A46FFF7F2F97B681B680D
:101DF00093F82830002B0ED07B6899687B681B68AD
:101E000093F828207B681B6893F829300846114610
:101E10001A46FFF705F87B681B6893F82A30002BF9
:101E20000ED07B6899687B681B6893F82A207B68D2
:101E30001B6893F82B30084611461A46FFF71EF828
:101E40007B681B6893F82C30002B09D07B689A685C
:101E50007B681B6893F82C3010461946FFF7EAF8A8
:101E60007B681B6893F82D30002B09D07B689A683B
:101E70007B681B6893F82D3010461946FFF7C0F8B1
:101E80007B681B6893F82E30002B09D07B689A681A
:101E90007B681B6893F82E3010461946FFF796F8BA
:101EA0007B681B6893F82F30002B13D07B689A68EF
:101EB0007B681B6893F82F3010461946FFF70AF825
:101EC0007B689A687B681B6893F830301046194627
:101ED000FFF71AF87B681B6893F83130002B11D09C
:101EE0007B6898687B681B6893F831107B681B6877
:101EF00093F832207B681B6893F8333000930323F8
:101F0000FFF71CF87B681B6893F83730032B1AD156
:101F10007B6899687B681B6893F839207B681B682D
:101F200093F83830084611461A46FFF7B5F87B6833
:101F30001B6893F83630002B05D07B689B681846E9
:101F40000121FFF711FD7B681B6893F83430002BEB
:101F500005D17B681B6893F83530002B11D07B6866
:101F600099687B681B681A6A7B681B685B6A08460D
:101F700011461A46FFF7CAF87B689B681846FFF7B8
:101F800073F80837BD4680BD80B584B000AF786077
:101F90000123FB737B681B7F012B03D07B681B7FB6
:101FA000032B17D17B685A687B685B7B1046194608
:101FB000FFF7C6FC7B681B6893F82830002B04D120
:101FC0007B689B681846FFF7E1FC7B6802221A7762
:101FD0000023FB73FB7B18461037BD4680BD00BF56
:101FE00080B588B000AF786039600123FB770023AB
:101FF0007B617B681B7F002B6BD03B68002B68D01C
:102000007B681B6A7B617A693B68B2FBF3F3BB6157
:102010007B681B685B6C1B7803F00103DBB2002B51
:1020200002D0BB695B08BB61BB69002B51D0BB69A7
:10203000B3F5803F4DD27B685B6A3B617B689B6AEE
:10204000FB603B69C3F51C5310333B613B69BA69C4
:1020500002FB03F33B613B69204AA2FB03235B0BBA
:102060003B61FB68C3F51C531033FB60FB68BA6926
:1020700002FB03F3FB60FB68184AA2FB03235B0B24
:10208000FB603B697B81FB683B817B689A68BB692D
:102090009BB2013B9BB210461946FFF703F97B68E0
:1020A0009A687B89104600211A46FFF709F97B6878
:1020B0009A683B89104601211A46FFF701F97B68AF
:1020C0005A687B681B6910461946FFF779FC0023A4
:1020D000FB77FB7F18462037BD4680BD5917B7D127
:1020E00080B588B000AFF8600B467A60FB720123C0
:1020F000FB77FB681B7F002B36D07B6842F21072A7
:10210000934231D8FB689B681846FFF74BFC0346A7
:102110000133BB617B68C3F51C531033BA6902FB02
:1021200003F3144AA2FB03235B0B7B61FB689968F2
:102130007B699BB2FA7A084611461A46FFF7C0F847
:10214000FB685A68FB681B6910461946FFF738FCA4
:10215000FB7A002B03D1FB687A685A6202E0FB68C5
:102160007A689A620023FB77FB7F18462037BD46CA
:1021700080BD00BF5917B7D180B483B000AF78607D
:102180007B68DB6843F480727B68DA600C37BD469D
:102190005DF8047B704700BF80B582B000AF786007
:1021A0007B685B7B83F00103DBB2002B0FD07B6885
:1021B0009A687B681B7B10461946FEF7BDFD7B685D
:1021C0009B681846FFF7D8FF7B6801225A730023EB
:1021D00018460837BD4680BD80B582B000AF786034
:1021E0007B681B7B83F00103DBB2002B0DD07B6887
:1021F00019687B681A797B689B68084611461A46FD
:10220000FFF7E8F87B6801221A73002318460837A5
:10221000BD4680BD80B485B000AF78607B6803F0B8
:102220000703FB600C4BDB68BB60BA684FF6FF032B
:102230001340BB60FB681A02BB68134343F0BF63E3
:1022400043F40033BB60044ABB68D3601437BD4617
:102250005DF8047B704700BF00ED00E080B582B000
:1022600000AF0120FFF7D6FF72B6214B214A9A60DA
:10227000BFF34F8F62B61E4A1D4BD3F8883043F42C
:102280007003C2F888301C4B03F5805314331B686D
:102290007B607B6823F00F037B607B6843F0030364
:1022A0007B60154B03F5805314337A681A60104A2B
:1022B0000F4B5B6923F0100353610D4A0C4B5B69B4
:1022C00023F0080353610A4A094B5B6A23F4803305
:1022D0005362074A064B5B6A23F400335362044A95
:1022E000034B5B6A23F4802353620837BD4680BDED
:1022F00000ED00E0000000080010005880B400AFBE
:10230000024B1846BD465DF8047B7047001BB700C2
:10231000B0B586B000AF124B3C1D1D460FCD0FC4AB
:102320002B6823603B1D1846FEF712F90020FEF7CC
:10233000E7F90020FEF79CF90420FEF76DFA012072
:102340002021FEF7B5FA0020FEF7A6F90120FEF7DE
:102350008BFA0120FEF774FA1837BD46B0BD00BFF6
:102360001840000880B582B000AF0023FB71FB79F4
:10237000002B04D11448FFF749FB0346FB71FB799E
:10238000002B04D11148FFF741FB0346FB71FB7999
:10239000002B04D10E48FFF739FB0346FB71FB7994
:1023A000002B04D10B48FFF791FA0346FB71FB7930
:1023B000002B04D10848FFF70FFF0346FB71FB79A0
:1023C00018460837BD4680BD0000002034000020BC
:1023D00068000020C8000020AC00002080B483B05A
:1023E00000AF0346FB71084997F907305B09FA799A
:1023F00002F01F02012000FA02F241F823200C37FC
:10240000BD465DF8047B704700E100E080B483B016
:1024100000AF78600B46FB707B68D3F8A420FB7894
:10242000012101FA03F31A437B68C3F8A4200C3797
:10243000BD465DF8047B704780B582B000AFFFF702
:1024400091FF0346FB7100F0E1F9FB79012B00D10C
:10245000FEE70748FFF798FD0648FFF795FD064899
:10246000FFF792FD42F2107000F07AF9FEE700BF2C
:102470000000002034000020680000200000000060
:102480002DE9B04388B000AFF860B9607A60D7ED4D
:10249000037AB7EE007AF4EEC77AF1EE10FA02DDB5
:1024A0004FF07E53FB60D7ED037AF5EEC07AF1EE84
:1024B00010FA02D54FF00003FB60F86801F092F9C2
:1024C00004460D46786801F06BF902460B4610464B
:1024D00019469BA3D3E9002301F0D8F902460B4625
:1024E000904699469C4B1B68184601F07BF90246C2
:1024F0000B464046494601F0C9F902460B46904654
:102500009946B86801F06EF902460B4640464946C6
:1025100001F00AF802460B461046194601F0C8FBC6
:102520000346184600F090F90346184601F05AF9A0
:1025300002460B46104619464FF00002874B01F049
:10254000A5F902460B46104619464FF00002834B90
:1025500000F0EAFF02460B462046294601F096F9B4
:1025600002460B461046194601F0A2FB0346FB61EA
:10257000F86801F037F904460D46786801F010F963
:1025800002460B46104619466DA3D3E9002301F01D
:102590007DF902460B46904699466F4B1B681846DC
:1025A00001F020F902460B464046494601F06EF91B
:1025B00002460B4690469946B86801F013F9024668
:1025C0000B464046494600F0AFFF02460B46104618
:1025D00019465DA3D3E9002300F0A6FF02460B468F
:1025E0001046194601F064FB0346184600F02CF92A
:1025F0000346184601F0F6F802460B461046194607
:102600004FF00002554B01F041F902460B461046CF
:1026100019464FF00002514B00F086FF02460B4670
:102620002046294601F032F902460B46104619466B
:1026300001F03EFB0346BB61F86801F0D3F80446A5
:102640000D46786801F0ACF802460B461046194674
:102650003BA3D3E9002301F019F902460B4690464B
:1026600099463D4B1B68184601F0BCF802460B46E4
:102670004046494601F00AF902460B469046994603
:10268000B86801F0AFF802460B464046494600F0F4
:102690004BFF02460B46104619462BA3D3E90023F5
:1026A00000F040FF02460B461046194601F000FBC1
:1026B0000346184600F0C8F80346184601F092F8A1
:1026C00002460B46104619464FF00002234B01F01C
:1026D000DDF802460B46104619464FF000021F4B2C
:1026E00000F022FF02460B462046294601F0CEF8B4
:1026F00002460B461046194601F0DAFA03467B61A2
:10270000F869B9697A6900F045F8134B1B681846F7
:1027100001F068F802460B46104619460CA3D3E9AF
:10272000002300F001FF02460B461046194601F057
:10273000BFFA0246084B1A602037BD46BDE8B08399
:10274000A7E8482EFF2119406FF085C954C1004009
:102750002D431CEBE2361A3FCC0000200000E03F86
:1027600080B582B000AF786007487968FFF738FC21
:1027700006487968FFF734FC05487968FFF730FCB4
:102780000837BD4680BD00BF000000203400002097
:102790006800002080B584B000AFF860B9607A604E
:1027A000D7ED037A9FED157A67EE877AFCEEE77A2C
:1027B0001348002117EE902AFFF792FCD7ED027A1A
:1027C0009FED0E7A67EE877AFCEEE77A0D480021DE
:1027D00017EE902AFFF784FCD7ED017A9FED077A78
:1027E00067EE877AFCEEE77A0748002117EE902A19
:1027F000FFF776FC1037BD4680BD00BF00401C4689
:1028000000000020340000206800002080B500AFE8
:1028100006480021FFF7FAFD044800210022FEF7D8
:1028200067FD3C20FFF7DAFD80BD00BF00010240DC
:1028300080B500AF03484FF000010122FFF720FEF2
:1028400080BD00BF3333333F00B585B0244A0190CB
:10285000019B23F0004393421EDDB3F1FF4F08DBE1
:10286000DDED017A77EEE77A17EE900A05B05DF8B4
:1028700004FB02A900F036F800F00300012820D084
:10288000022814D020B30298039900F077F907EEDC
:10289000900AF1EE677AE7E70021002200F00CFDD4
:1028A00007EE900A17EE900A05B05DF804FB029857
:1028B0000399012200F000FD07EE900AF1EE677A1D
:1028C000D2E70298039900F059F907EE900ACBE796
:1028D00002980399012200F0EFFC07EE900AC3E78B
:1028E000D80F493F70B5974A20F00044944286B013
:1028F00006460D4668DD944A94421CDC0028DFED54
:10290000937A934A24F00F0407EE100A40F3E28012
:10291000944277EE677A67D09FED8E7A77EEC76A3A
:10292000012077EEE67AC1ED006A77EEC77AC1ED55
:10293000017A06B070BD884A944267DDB4F1FF4F5A
:1029400048DAE215863AA4EBC25307EE103AFDEEE0
:10295000C76ADFED827AF8EEE66A37EE667ACDED89
:10296000036A27EE277AFDEEC76AF8EEE66A37EECD
:10297000667ACDED046A67EE277AF5EE407AF1EEDD
:1029800010FACDED057A40F0B880F5EE406AF1EE30
:1029900010FA14BF02230123714902208DE80300BD
:1029A00003A8294600F074F9002E11DA95ED007A9B
:1029B000D5ED017AB1EE477AF1EE677A404285EDC6
:1029C000007AC5ED017A03E0002228604A60002009
:1029D00006B070BD07EE900A77EEE77A0020C1EDF1
:1029E000017AC1ED007AF3E7DFED5E6A9FED5E7A72
:1029F00077EEE67A012077EEC76A77EEE67AC1EDE8
:102A0000006A77EEC77AC1ED017AE1E700F0A2FC37
:102A10009FED566A9FED4D5ADFED4E6A07EE100AA4
:102A2000F6EE007AE7EE067AFDEEE77AB8EEE76AB0
:102A300017EE900AF1EE465AF0EE477A1F28E5EEBF
:102A4000857A26EE267A1DDC494A411E24F0FF03D2
:102A500052F82120934215D077EEC76AC5ED006A7F
:102A600077EEE67A002E77EEC77AC5ED017AAFDA17
:102A7000F1EE666AF1EE677AC5ED006AC5ED017A9E
:102A80004042A5E777EEC76AE41516EE903AC3F325
:102A9000C753E31A082BE1DD9FED327ADFED326A8E
:102AA000B0EE675AA5EE875A77EEC57AE5EE877ADB
:102AB000D6EE267A75EE676AB0EE677A16EE903A31
:102AC000C3F3C753E41A192C2CDCC5ED006AF0EEF1
:102AD000457AC5E7944277EE277A10D09FED1D7AAC
:102AE00077EE876A4FF0FF3077EEE67AC1ED006A45
:102AF00077EE877AC1ED017A6AE703234CE7DFEDD1
:102B0000196A9FED197A77EEA67A4FF0FF3077EECB
:102B1000876A77EEE67AC1ED006A77EE877AC1EDD3
:102B2000017A55E7DFED136ADFED134AF0EE457ADF
:102B3000E5EEA67A35EE677AA5EEA67A96EE247AC9
:102B40008AE700BFD80F493FE3CB1640800FC93F4B
:102B5000D00FC93F43443537800F494300008043BD
:102B6000AC4000080044353708A3852E84F9223F85
:102B70002C40000800A3852E32318D2420F0004324
:102B8000B3F1485F06EE100A06EE901A2EDAFDEE5B
:102B9000C67A17EE903A002B64D026EE067ADFED67
:102BA000343A9FED344ADFED344A9FED345ADFED7D
:102BB000347ADFED345AA7EE234AE4EE074AA4EE56
:102BC000875AE5EE077AE7EE875A65EE875A66EE92
:102BD000C66AB6EE006AE7EE256AF7EE007AD7EE2F
:102BE000066A77EEE67A17EE900A704726EE067AC6
:102BF000DFED1F3A9FED1F4ADFED1F4A9FED1F5A81
:102C0000DFED1F7ADFED1F5A1F4AA7EE234A9342DA
:102C1000E4EE074AA4EE875AE5EE077AE7EE875A14
:102C200065EE875AD3DD194A934216DC03F17F43E0
:102C300007EE903AB7EE005A35EE675A66EEC66A6E
:102C4000B6EE006AE7EE256AD7EE067A77EEE67A08
:102C500075EE677A17EE900A7047B6EE075AF5EEF2
:102C6000027AEBE7F7EE007A17EE900A704700BFA2
:102C70004ED747ADF6740F317CF293B4010DD037C7
:102C8000610BB6BAABAA2A3D9999993E0000483F1C
:102C90002DE9F04F2DED048BD7B05E1EA54C649D41
:102CA0000293D31E48BF131D54F825500191DB1029
:102CB00023EAE3736FEA030A71190393814602EB77
:102CC000CA0AA3EB060314D41944659801311AAA61
:102CD000002BAABF50F82340DFED977A07EE904A09
:102CE00003F10103A8BFF8EEE77A8B42E2EC017A28
:102CF000EED1002D1ADB029B1AA96C1C01EB840497
:102D000042A89F00002EC0F2CE81DFED8B7A4A46AA
:102D1000CB1933ED017AF2EC016A9942E6EE877A3B
:102D2000F7D10431A142E0EC017AEBD1029ADFED58
:102D3000848A9FED828A05F18043013B9B00C2EBB0
:102D4000827806AA1F1D1344174404934FEA88088B
:102D50002C464FEA840B56AB5B44002C53ED146AAF
:102D600019DD42A901EB0B0305AA66EEA87AB0EEC5
:102D7000667AFDEEE77A33ED016AF8EEE77A8B4288
:102D8000A7EEC87A77EE866ABDEEC77A17EE100A0C
:102D900042F8040FE9D116EE900A514600F038FBD4
:102DA00009EE100AF4EE007A69EE277A17EE900A1F
:102DB00000F0D4FA07EE100AF2EE007AA7EE679A56
:102DC000BAF1000FFDEEC99AF8EEE97A39EE679A8A
:102DD00040F34D81611E06AACAF1080352F8210092
:102DE00040FA03F202FA03F30DF1180EC31A4EF87B
:102DF000213019EE901A1144CAF1070009EE901A19
:102E000043FA00FCBCF1000F37DD19EE903A002CBC
:102E100003F1010309EE903A40F3DE8100221046EF
:102E200005A908E0C3F5807E13B1C1F800E00120D8
:102E3000013294420BDD51F8043F0028F2D00132F8
:102E4000C3F1FF0394420B604FF00100F3DCBAF1D1
:102E5000000F0FDDBAF1010F00F01181BAF1020F7E
:102E600008D1621E06AB06A953F8223003F03F03D7
:102E700041F82230BCF1020F64D0B5EE409AF1EE79
:102E800010FA77D1631E9D420BDC06AA9344002200
:102E90005BF8041DBB4542EA0102F9D1002A40F06B
:102EA00085816B1E06AA52F82330002B40F09181D9
:102EB000049B4FF0010C53F8042D0CF1010C002A77
:102EC000F9D0A444631C634531DC039A03EB020E82
:102ED000029A0EF1804EA0180CEB020B659A0EF1CF
:102EE000FF3E02EB8E0E1AAA02EB800002EB8B0B68
:102EF00042AA02EB83045EF8043F07EE903AF8EE34
:102F0000E77A002EE0EC017ADFED0B7A0BDB4A4624
:102F100000EB0801034633ED017AF2EC016A8B42C3
:102F2000E6EE877AF7D15845E4EC017AE3D16446BE
:102F30000FE700BFC443000800000000000080430A
:102F40000000803BF7EE007A37EEC99A002894D053
:102F500017EE900A5146CDF814C000F059FA07EE6A
:102F6000900A39EE679ADDF814C0B5EE409AF1EE9A
:102F700010FA87D019EE100ACAF10001CDF808C086
:102F800000F046FA5FED136ADDF808C007EE100A9C
:102F9000B4EEE67AF1EE10FAC0F281815FED187AB4
:102FA00067EE277A06A9FDEEE77A631CF8EEE77A6A
:102FB0000AF1080AA7EEE67AFDEEE77ABDEEC77AD7
:102FC00017EE102A41F8242017EE902A41F823200A
:102FD00051464FF07E500393CDF808C000F018FA28
:102FE000039BDDF808C0002B07EE100AC0F2C28078
:102FF0005F1CBA0042A806A95FED2F6A114486182B
:1030000071ED017AF8EEE77A67EE877A27EE267A95
:1030100066ED017A8642F3D1043A16440024002D6D
:10302000C0F2A580002CC0F2A280A148DFEDA17AF9
:103030003146002201E0A24208DCF0EC016AB1EC6A
:10304000017A01329542E6EE877AF4DA56AA02EB6B
:1030500084020134BC42A6F1040642ED287ADED196
:10306000649A032A65D8DFE802F06D3A3AB910D1C4
:10307000631E06AA52F823304FEA232CC2E6621ED2
:1030800006AB06A953F8223003F07F0341F8223043
:10309000F0E6F6EE007AB4EEE79AF1EE10FA0BDA0B
:1030A0004FF0000CE9E6DFED837A0431A142E0EC59
:1030B000017A7FF427AE39E619EE903A002C03F13D
:1030C000010309EE903AC8BF4FF0020C3FF7A6AEDD
:1030D000F7EE007A37EEC99A4FF0020CCDE62EAA31
:1030E000DFED747A02EB870737ED017A974277EECE
:1030F000877AF9D1BCF1000F48D0DDED2E6A019A34
:10310000B1EE677A002B76EEE77A82ED007A0BDD7E
:103110002FA90122B1EC017A0132934277EE877A2E
:10312000F8DABCF1000F01D0F1EE677A019BC3ED34
:10313000017A19EE903A03F0070057B0BDEC048B0A
:10314000BDE8F08F2EAADFED5B7A02EB870737ED43
:10315000017A013B5A1C77EE877AF8D1BCF1000F57
:1031600001D0F1EE677A019BC3ED007AE1E7DFED74
:10317000517A6BE7649A032ADBD8DFE802F0140285
:103180000283DFED4C7ABCF1000FB6D19DED2E7AB3
:10319000019A002BC2ED007A77EE677AB8DC019BCA
:1031A000C3ED017AC5E7DFED437AD7E706AAAAF1B6
:1031B000080A52F82320002A7FF40AAF06AA02EB7D
:1031C000830252F8041D013BAAF1080A0029F8D035
:1031D000FEE64FF0010C74E6002038E6002B51DDCE
:1031E0009A0056A911442EAC101D11ED287A2044E6
:1031F000A11871ED017A77EE276AA14277EEE67A9F
:1032000077EE277AB0EE667A60ED017AC1ED006A5A
:10321000EFD1012B36DD131D56A810440B4410EDE1
:10322000287A0A442FA8194672ED017A77EE876A48
:10323000824277EEE67A77EE877AB0EE667A61EDD3
:10324000017AC2ED006AEFD1DFED1A7A30AA33EDD0
:10325000017A934277EE877AF9D1BCF1000F16D04C
:10326000DDED2E6A9DED2F7A019AF1EE677AF1EE8F
:10327000666AB1EE477AC2ED027AC2ED006A82ED6B
:10328000017A56E7DFED0B7ABCF1000FE8D1019827
:103290002E9A2F9BC0ED027A0260436049E7BDEE93
:1032A000C77A06A917EE102A234641F824208FE694
:1032B000D04300080000000020F00043B3F1485F55
:1032C00007EE900A06EE101A04DABDEEE77A17EE62
:1032D000103A23B327EEA77A9FED174ADFED174A7E
:1032E0009FED175ADFED175ADFED176AE7EE044A34
:1032F00027EE274AA4EE875AE5EE075AE5EE876ADD
:1033000082B166EEC46AF6EE005AE6EE256ADFED9B
:103310000F5A96EE876AA4EE256A77EEC67A17EE04
:10332000900A70479FED0A6AA7EE266AE6EE047AD5
:1033300017EE900A704700BFD3C92E2F342FD7B293
:103340001BEF3836010D50B98988083CABAA2A3EDC
:10335000ABAA2ABE20F00040704700BF10B483B073
:103360000190019A22F00041CB0D7F3B162B19DC16
:10337000002B144628DB24481841104215D0DFEDFD
:10338000237A9DED017A77EE277AF5EEC07AF1EE99
:1033900010FA28DD002A29DB24EA000003B05DF8DA
:1033A000044B7047B1F1FF4F04D2019803B05DF8B0
:1033B000044B7047DDED017A77EEA77A17EE900A9D
:1033C00003B05DF8044B7047DFED107A07EE100A8A
:1033D00077EE277AF5EEC07AF1EE10FAE5DD002AF5
:1033E0000ADB0020E2E717EE100ADFE74FF40002E5
:1033F00042FA03F31C44CFE70029FFEE007A18BF1E
:1034000017EE900AD2E700BFFFFF7F00CAF24971B2
:1034100000B52DED028B83B00190019B33F000428B
:1034200023D0B2F1FF4F15D2B2F5000F26D3D20D43
:103430000A44FE2A3CDC002A30DD23F0FF4343EA45
:10344000C25307EE903A17EE900A03B0BDEC028B20
:103450005DF804FB07EE900A77EEA77A17EE900A64
:1034600003B0BDEC028B5DF804FBDDED017A17EED5
:10347000900A03B0BDEC028B5DF804FB9DED017A70
:10348000DFED1E7A1E4B67EE277A9942CDED017A69
:1034900020DB019BC3F3C752193AC9E712F1160F9B
:1034A0001FDA4CF25033994202DC9FED168A01E09C
:1034B0009FED158A019918EE100A00F029F807EE21
:1034C000900A67EE887A17EE900A03B0BDEC028B83
:1034D0005DF804FBDFED0B7A9DED017A67EE277A4C
:1034E000BCE7193223F0FF4343EAC2539FED077A4A
:1034F00007EE903A67EE877AB0E700BF0000004C15
:10350000B03CFFFF6042A20DCAF2497100000033D7
:1035100001F0004120F000400843704781F0004175
:1035200002E000BF83F0004330B54FEA41044FEAA8
:10353000430594EA050F08BF90EA020F1FBF54EA43
:10354000000C55EA020C7FEA645C7FEA655C00F0DF
:10355000E2804FEA5454D4EB5555B8BF6D420CDDB0
:103560002C4480EA020281EA030382EA000083EA33
:10357000010180EA020281EA0303362D88BF30BDD3
:1035800011F0004F4FEA01314FF4801C4CEA113129
:1035900002D0404261EB410113F0004F4FEA033388
:1035A0004CEA133302D0524263EB430394EA050F13
:1035B00000F0A780A4F10104D5F1200E0DDB02FA82
:1035C0000EFC22FA05F2801841F1000103FA0EF216
:1035D000801843FA05F359410EE0A5F120050EF1DC
:1035E000200E012A03FA0EFC28BF4CF0020C43FA0D
:1035F00005F3C01851EBE37101F0004507D54FF01A
:10360000000EDCF1000C7EEB00006EEB0101B1F569
:10361000801F1BD3B1F5001F0CD349085FEA3000AF
:103620004FEA3C0C04F101044FEA445212F5800FBA
:1036300080F09A80BCF1004F08BF5FEA500C50F157
:10364000000041EB045141EA050130BD5FEA4C0C3A
:10365000404141EB010111F4801FA4F10104E9D1C3
:1036600091F0000F04BF01460020B1FA81F308BFBA
:103670002033A3F10B03B3F120020CDA0C3208DD86
:1036800002F1140CC2F10C0201FA0CF021FA02F161
:103690000CE002F11402D8BFC2F1200C01FA02F1D1
:1036A00020FA0CFCDCBF41EA0C019040E41AA2BFF6
:1036B00001EB0451294330BD6FEA04041F3C1CDABE
:1036C0000C340EDC04F11404C4F1200220FA04F0DE
:1036D00001FA02F340EA030021FA04F345EA030188
:1036E00030BDC4F10C04C4F1200220FA02F001FA4A
:1036F00004F340EA0300294630BD21FA04F02946CC
:1037000030BD94F0000F83F4801306BF81F4801164
:103710000134013D4EE77FEA645C18BF7FEA655CD7
:1037200029D094EA050F08BF90EA020F05D054EAA9
:10373000000C04BF1946104630BD91EA030F1EBFAE
:103740000021002030BD5FEA545C05D140004941B2
:1037500028BF41F0004130BD14F580043CBF01F5A5
:10376000801130BD01F0004545F0FE4141F470018B
:103770004FF0000030BD7FEA645C1ABF1946104666
:103780007FEA655C1CBF0B46024650EA013406BF67
:1037900052EA033591EA030F41F4002130BD00BF26
:1037A00090F0000F04BF0021704730B54FF48064E3
:1037B00004F132044FF000054FF0000150E700BF64
:1037C00090F0000F04BF0021704730B54FF48064C3
:1037D00004F1320410F0004548BF40424FF00001B0
:1037E0003EE700BF42004FEAE2014FEA31014FEAF3
:1037F00002701FBF12F07F4393F07F4F81F0605142
:10380000704792F0000F14BF93F07F4F704730B5B0
:103810004FF4607401F0004521F0004120E700BF43
:1038200050EA010208BF704730B54FF000050AE0CA
:1038300050EA010208BF704730B511F0004502D5CB
:10384000404261EB41014FF4806404F132045FEACD
:10385000915C3FF4DCAE4FF003025FEADC0C18BF72
:1038600003325FEADC0C18BF033202EBDC02C2F168
:10387000200300FA03FC20FA02F001FA03FE40EAFA
:103880000E0021FA02F11444C1E600BF70B54FF0FA
:10389000FF0C4CF4E06C1CEA11541DBF1CEA1355DC
:1038A00094EA0C0F95EA0C0F00F0DEF82C4481EA44
:1038B000030621EA4C5123EA4C5350EA013518BF64
:1038C00052EA033541F4801143F4801338D0A0FB51
:1038D00002CE4FF00005E1FB02E506F00042E0FBFE
:1038E00003E54FF00006E1FB03569CF0000F18BF04
:1038F0004EF0010EA4F1FF04B6F5007F64F54074AC
:1039000004D25FEA4E0E6D4146EB060642EAC6213E
:1039100041EA55514FEAC52040EA5E504FEACE2EAB
:10392000B4F1FD0C88BFBCF5E06F1ED8BEF1004FAE
:1039300008BF5FEA500E50F1000041EB045170BD2A
:1039400006F0004646EA010140EA020081EA03016E
:10395000B4EB5C04C2BFD4EB0C0541EA045170BD6A
:1039600041F480114FF0000E013C00F3AB8014F1E4
:10397000360FDEBF002001F0004170BDC4F100042D
:10398000203C35DA0C341BDC04F11404C4F12005AE
:1039900000FA05F320FA04F001FA05F240EA020009
:1039A00001F0004221F0004110EBD37021FA04F63F
:1039B00042EB06015EEA430E08BF20EAD37070BDF9
:1039C000C4F10C04C4F1200500FA04F320FA05F058
:1039D00001FA04F240EA020001F0004110EBD3705A
:1039E00041F100015EEA430E08BF20EAD37070BDCA
:1039F000C4F1200500FA05F24EEA020E20FA04F3A3
:103A000001FA05F243EA020321FA04F001F0004151
:103A100021FA04F220EA020000EBD3705EEA430EC2
:103A200008BF20EAD37070BD94F0000F0FD101F0F1
:103A30000046400041EB010111F4801F08BF013C2A
:103A4000F7D041EA060195F0000F18BF704703F068
:103A50000046520043EB030313F4801F08BF013DEF
:103A6000F7D043EA0603704794EA0C0F0CEA1355AB
:103A700018BF95EA0C0F0CD050EA410618BF52EA65
:103A80004306D1D181EA030101F000414FF000006B
:103A900070BD50EA410606BF1046194652EA430679
:103AA00019D094EA0C0F02D150EA013613D195EAED
:103AB0000C0F05D152EA03361CBF104619460AD135
:103AC00081EA030101F0004141F0FE4141F470013F
:103AD0004FF0000070BD41F0FE4141F4780170BD2F
:103AE00070B54FF0FF0C4CF4E06C1CEA11541DBF94
:103AF0001CEA135594EA0C0F95EA0C0F00F0A7F896
:103B0000A4EB050481EA030E52EA03354FEA0131C2
:103B100000F088804FEA03334FF0805545EA1313D5
:103B200043EA12634FEA022245EA111545EA10659D
:103B30004FEA00260EF000419D4208BF964244F134
:103B4000FD0404F5407402D25B084FEA3202B61A53
:103B500065EB03055B084FEA32024FF480104FF427
:103B6000002CB6EB020E75EB030E22BFB61A75469B
:103B700040EA0C005B084FEA3202B6EB020E75EB2E
:103B8000030E22BFB61A754640EA5C005B084FEA96
:103B90003202B6EB020E75EB030E22BFB61A754663
:103BA00040EA9C005B084FEA3202B6EB020E75EB6E
:103BB000030E22BFB61A754640EADC0055EA060E2F
:103BC00018D04FEA051545EA16754FEA06164FEA72
:103BD000C30343EA52734FEAC2025FEA1C1CC0D11E
:103BE00011F4801F0BD141EA00014FF000004FF0AB
:103BF000004CB6E711F4801F04BF01430020B4F16C
:103C0000FD0C88BFBCF5E06F3FF6AFAEB5EB030C23
:103C100004BFB6EB020C5FEA500C50F1000041EB20
:103C2000045170BD0EF0004E4EEA113114EB5C04ED
:103C3000C2BFD4EB0C0541EA045170BD41F48011C0
:103C40004FF0000E013C90E645EA060E8DE60CEAC8
:103C5000135594EA0C0F08BF95EA0C0F3FF43BAFE5
:103C600094EA0C0F0AD150EA01347FF434AF95EA9C
:103C70000C0F7FF425AF104619462CE795EA0C0F80
:103C800006D152EA03353FF4FDAE1046194622E74D
:103C900050EA410618BF52EA43067FF4C5AE50EA27
:103CA00041047FF40DAF52EA43057FF4EBAE12E717
:103CB0004FEA4102B2F1E04324BFB3F5001CDCF14E
:103CC000FE5C0DD901F0004C4FEAC0024CEA507086
:103CD000B2F1004F40EB830008BF20F001007047B5
:103CE00011F0804F21D113F13872BCBF01F00040B8
:103CF000704741F480114FEA5252C2F11802C2F1EA
:103D0000200C10FA0CF320FA02F018BF40F001006A
:103D10004FEAC1234FEAD32303FA0CFC40EA0C001C
:103D200023FA02F34FEA4303CCE77FEA625307D159
:103D300050EA01331EBF4FF0FE4040F44000704790
:103D400001F0004040F0FE4040F40000704700BF2A
:103D500070B50E4B0E4CE41AA41000251E46A54269
:103D600004D056F8253098470135F8E7FDF758FBA1
:103D7000084C094BE41AA41000251E46A54204D0A5
:103D800056F8253098470135F8E770BD9C3D00088E
:0C3D90009C3D00089C3D00089C3D000884
:103D9C0014440050204400502C440050384400502F
:103DAC0001000000000000001400000000000000F2
:103DBC0000000100000001000000010000000000F4
:103DCC00000000000000000098000000000001004E
:103DDC000400000098000000000001000400000036
:103DEC00000057029D012B010000000000000000A4
:103DFC00000000000000000000000000BC3D0008B6
:103E0C00C03D0008C43D0008000100000000000097
:103E1C000000000000000000010000000000000491
:103E2C00C83D0008AC3D00080100000000800248BD
:103E3C0005000000D43D000801000000008002488D
:103E4C0002000000E03D000800000000000000003F
:103E5C000000000000000000000000000000000056
:103E6C0000000000000000009C0000200100000089
:103E7C000000000014000000000000000000010021
:103E8C000000010000000100000000000000000024
:103E9C000000000098000000000001000400000079
:103EAC009800000000000100040000000000570210
:103EBC009D012B010000000000000000000000002C
:103ECC000000000000000000883E00088C3E000846
:103EDC00903E0008000100000000000000000000FF
:103EEC00000000000100000000000008943E0008E3
:103EFC00783E000801000000008002480400000029
:103F0C00A03E0008010000000080024801000000F3
:103F1C00AC3E0008000000000000000000000000A3
:103F2C000000000000000000000000000000000085
:103F3C00000000009C0000200100000000000000B8
:103F4C00140000000000000000000100000001004F
:103F5C000000010000000000000000000000000054
:103F6C009800000000000100040000009800000010
:103F7C000000010004000000000057029D012B010D
:103F8C000000000000000000000000000000000025
:103F9C0000000000543F0008583F00085C3F000838
:103FAC000001000000000000000000000000000004
:103FBC000100000000000010603F0008443F0008B2
:103FCC000100000000800248030000006C3F000864
:103FDC00010000000080024800000000783F00084B
:103FEC0000000000000000000000000000000000C5
:103FFC0000000000000000000000000000000000B5
:10400C009C00002000000000000000005002040191
:10401C00000001000000000000000100010101018E
:10402C00000FC93F000F494000CB9640000FC9401C
:10403C000053FB4000CB164100ED2F41000F4941CE
:10404C000031624100537B41003A8A4100CB9641DA
:10405C00005CA34100EDAF41007EBC41000FC941A3
:10406C0000A0D5410031E24100C2EE410053FB41BA
:10407C0000F20342003A0A420083104200CB16427F
:10408C0000141D42005C234200A5294200ED2F4282
:10409C0000363642007E3C4200C74242000F494285
:1040AC00A2000000F9000000830000006E00000078
:1040BC004E00000044000000150000002900000024
:1040CC00FC0000002700000057000000D100000099
:1040DC00F500000034000000DD000000C00000000E
:1040EC00DB00000062000000950000009900000059
:1040FC003C00000043000000900000004100000064
:10410C00FE0000005100000063000000AB00000046
:10411C00DE000000BB000000C500000061000000D4
:10412C00B7000000240000006E0000003A00000000
:10413C00420000004D000000D2000000E000000032
:10414C0006000000490000002E000000EA000000FC
:10415C0009000000D1000000920000001C000000CB
:10416C00FE0000001D000000EB0000001C00000021
:10417C00B100000029000000A70000003E00000074
:10418C00E80000008200000035000000F50000008F
:10419C002E000000BB000000440000008400000062
:1041AC00E90000009C0000007000000026000000E8
:1041BC00B40000005F0000007E0000004100000021
:1041CC003900000091000000D6000000390000000A
:1041DC00830000005300000039000000F4000000D0
:1041EC009C000000840000005F0000008B000000B9
:1041FC00BD000000F9000000280000003B0000009A
:10420C001F000000F800000097000000FF000000F5
:10421C00DE00000005000000980000000F00000008
:10422C00EF0000002F000000110000008B000000C8
:10423C005A0000000A0000006D0000001F00000082
:10424C006D000000360000007E000000CF00000072
:10425C0027000000CB00000009000000B7000000A0
:10426C004F000000460000003F0000006600000008
:10427C009E0000005F000000EA0000002D0000001E
:10428C007500000027000000BA000000C700000005
:10429C00EB000000E5000000F10000007B000000D6
:1042AC003D0000000700000039000000F70000008E
:1042BC008A0000005200000092000000EA0000009A
:1042CC006B000000FB0000005F000000B10000006C
:1042DC001F0000008D0000005D00000008000000C1
:1042EC0056000000030000003000000046000000F3
:1042FC00FC0000007B0000006B000000AB00000025
:10430C00F0000000CF000000BC0000002000000006
:10431C009A000000F4000000360000001D000000B0
:10432C00A9000000E3000000910000006100000003
:10433C005E000000E60000001B000000080000000A
:10434C006500000099000000850000005F0000007F
:10435C0014000000A00000006800000040000000F5
:10436C008D000000FF000000D8000000800000005D
:10437C004D00000073000000270000003100000019
:10438C0006000000060000001500000056000000AA
:10439C00CA00000073000000A8000000C900000063
:1043AC0060000000E20000007B000000C000000084
:1043BC008C0000006B0000000400000007000000EF
:1043CC00090000000000C93F0000F0390000DA3796
:1043DC000000A2330000842E0000502B0000C227E6
:1043EC000000D0220000C41F0000C61B00004417B0
:10440000EC3D0008000002400001024000000000F6
:104410000100000002000000040000000000000095
:10442000000000002C0C00009813000000000000A9
:1044300000000000B83E00080000024000020240F8
:1044400000010000100000002000000040000000FB
:1044500000000000000000002C0C00009813000079
:104460000000000000000000843F0008000002403F
:1044700000030240000200000001000000020000F2
:104480000004000000000000000000002C0C0000F0
:10449000981300000000000000000000000E270735
:1044A0000001000000000240000000000040044045
:0C44B000010000001040000800000000A7
:0400000508000201EC
:00000001FF
